{
  "contractName": "annoyAttendance",
  "abi": [
    {
      "constant": false,
      "inputs": [],
      "name": "signIn",
      "outputs": [],
      "payable": true,
      "stateMutability": "payable",
      "type": "function"
    },
    {
      "constant": false,
      "inputs": [],
      "name": "signOut",
      "outputs": [],
      "payable": false,
      "stateMutability": "nonpayable",
      "type": "function"
    },
    {
      "constant": true,
      "inputs": [
        {
          "internalType": "address",
          "name": "_address",
          "type": "address"
        }
      ],
      "name": "checkAttendee",
      "outputs": [
        {
          "internalType": "bool",
          "name": "",
          "type": "bool"
        }
      ],
      "payable": false,
      "stateMutability": "view",
      "type": "function"
    },
    {
      "constant": true,
      "inputs": [],
      "name": "getAttendeeCount",
      "outputs": [
        {
          "internalType": "uint256",
          "name": "",
          "type": "uint256"
        }
      ],
      "payable": false,
      "stateMutability": "view",
      "type": "function"
    }
  ],
  "bytecode": "0x608060405234801561001057600080fd5b506104bf806100206000396000f3fe60806040526004361061003f5760003560e01c806334adc87514610044578063405fbab51461005b5780639e4cda43146100c4578063abafe485146100ce575b600080fd5b34801561005057600080fd5b506100596100f9565b005b34801561006757600080fd5b506100aa6004803603602081101561007e57600080fd5b81019080803573ffffffffffffffffffffffffffffffffffffffff169060200190929190505050610279565b604051808215151515815260200191505060405180910390f35b6100cc6102ce565b005b3480156100da57600080fd5b506100e361045e565b6040518082815260200191505060405180910390f35b600115156000803373ffffffffffffffffffffffffffffffffffffffff1673ffffffffffffffffffffffffffffffffffffffff16815260200190815260200160002060009054906101000a900460ff161515146101be576040517f08c379a00000000000000000000000000000000000000000000000000000000081526004018080602001828103825260198152602001807f4164647265737320616c7265616479207369676e206f75742e0000000000000081525060200191505060405180910390fd5b3373ffffffffffffffffffffffffffffffffffffffff166108fc67016345785d8a00009081150290604051600060405180830381858888f1935050505015801561020c573d6000803e3d6000fd5b5060008060003373ffffffffffffffffffffffffffffffffffffffff1673ffffffffffffffffffffffffffffffffffffffff16815260200190815260200160002060006101000a81548160ff02191690831515021790555060016000815480929190600190039190505550565b60008060008373ffffffffffffffffffffffffffffffffffffffff1673ffffffffffffffffffffffffffffffffffffffff16815260200190815260200160002060009054906101000a900460ff169050919050565b600015156000803373ffffffffffffffffffffffffffffffffffffffff1673ffffffffffffffffffffffffffffffffffffffff16815260200190815260200160002060009054906101000a900460ff16151514610393576040517f08c379a00000000000000000000000000000000000000000000000000000000081526004018080602001828103825260188152602001807f4164647265737320616c7265616479207369676e20696e2e000000000000000081525060200191505060405180910390fd5b67016345785d8a000034146103f3576040517f08c379a00000000000000000000000000000000000000000000000000000000081526004018080602001828103825260228152602001806104696022913960400191505060405180910390fd5b60016000803373ffffffffffffffffffffffffffffffffffffffff1673ffffffffffffffffffffffffffffffffffffffff16815260200190815260200160002060006101000a81548160ff021916908315150217905550600160008154809291906001019190505550565b600060015490509056fe53656e64206d6f7265207468616e20302e312045544820746f207369676e20696e2ea265627a7a72315820b5978afb8854570bab85feb79ca9f99578d4b1a8631322f32167be4ef5b0d39264736f6c63430005100032",
  "source": "pragma solidity ^0.5.16;\r\n\r\ncontract annoyAttendance {\r\n\r\n    mapping(address => bool) attendees;\r\n    uint256 count;\r\n\r\n    function signIn() external payable {\r\n        require(attendees[msg.sender] == false, 'Address already sign in.');\r\n        require(msg.value == 0.1 ether,'Send more than 0.1 ETH to sign in.');\r\n        attendees[msg.sender] = true;\r\n        count++;\r\n    }\r\n\r\n    function signOut() external {\r\n        require(attendees[msg.sender] == true,'Address already sign out.');\r\n        msg.sender.transfer(0.1 ether); // ?\r\n        attendees[msg.sender] = false;\r\n        count--;\r\n    }\r\n\r\n    function checkAttendee(address  _address) external view  returns(bool) {\r\n        return attendees[_address];\r\n    }\r\n\r\n    function getAttendeeCount() external view returns(uint) {\r\n        return count;\r\n    }\r\n\r\n}\r\n\r\n",
  "sourcePath": "C:/Users/Bc/Documents/GitHub/buidl/next-frontend-bns/contracts/annoyAttendance.sol",
  "compiler": {
    "name": "solc",
    "version": "0.5.16+commit.9c3226ce.Emscripten.clang"
  },
  "schemaVersion": "3.0.21",
  "updatedAt": "2020-07-09T10:21:59.391Z",
  "networkType": "ethereum",
  "devdoc": {
    "methods": {}
  },
  "userdoc": {
    "methods": {}
  }
}