{
  "contractName": "attendanceTracker",
  "abi": [
    {
      "constant": true,
      "inputs": [
        {
          "internalType": "uint256",
          "name": "",
          "type": "uint256"
        }
      ],
      "name": "attendeesAddress",
      "outputs": [
        {
          "internalType": "address",
          "name": "",
          "type": "address"
        }
      ],
      "payable": false,
      "stateMutability": "view",
      "type": "function"
    },
    {
      "constant": false,
      "inputs": [],
      "name": "addAttendee",
      "outputs": [],
      "payable": false,
      "stateMutability": "nonpayable",
      "type": "function"
    },
    {
      "constant": true,
      "inputs": [
        {
          "internalType": "address",
          "name": "_address",
          "type": "address"
        }
      ],
      "name": "checkAttendee",
      "outputs": [
        {
          "internalType": "bool",
          "name": "",
          "type": "bool"
        }
      ],
      "payable": false,
      "stateMutability": "view",
      "type": "function"
    },
    {
      "constant": true,
      "inputs": [],
      "name": "getAttendeeCount",
      "outputs": [
        {
          "internalType": "uint256",
          "name": "",
          "type": "uint256"
        }
      ],
      "payable": false,
      "stateMutability": "view",
      "type": "function"
    },
    {
      "constant": true,
      "inputs": [],
      "name": "getStringArray",
      "outputs": [
        {
          "internalType": "address[]",
          "name": "",
          "type": "address[]"
        }
      ],
      "payable": false,
      "stateMutability": "view",
      "type": "function"
    },
    {
      "constant": false,
      "inputs": [],
      "name": "resetAttendance",
      "outputs": [],
      "payable": false,
      "stateMutability": "nonpayable",
      "type": "function"
    }
  ],
  "bytecode": "0x608060405234801561001057600080fd5b506104d2806100206000396000f3fe608060405234801561001057600080fd5b50600436106100625760003560e01c8063103b1828146100675780631268347a146100c6578063405fbab51461013457806372c3a28214610190578063abafe4851461019a578063dd7488d0146101b8575b600080fd5b61006f6101c2565b6040518080602001828103825283818151815260200191508051906020019060200280838360005b838110156100b2578082015181840152602081019050610097565b505050509050019250505060405180910390f35b6100f2600480360360208110156100dc57600080fd5b8101908080359060200190929190505050610250565b604051808273ffffffffffffffffffffffffffffffffffffffff1673ffffffffffffffffffffffffffffffffffffffff16815260200191505060405180910390f35b6101766004803603602081101561014a57600080fd5b81019080803573ffffffffffffffffffffffffffffffffffffffff16906020019092919050505061028c565b604051808215151515815260200191505060405180910390f35b6101986102e1565b005b6101a26103a0565b6040518082815260200191505060405180910390f35b6101c06103ad565b005b6060600180548060200260200160405190810160405280929190818152602001828054801561024657602002820191906000526020600020905b8160009054906101000a900473ffffffffffffffffffffffffffffffffffffffff1673ffffffffffffffffffffffffffffffffffffffff16815260200190600101908083116101fc575b5050505050905090565b6001818154811061025d57fe5b906000526020600020016000915054906101000a900473ffffffffffffffffffffffffffffffffffffffff1681565b60008060008373ffffffffffffffffffffffffffffffffffffffff1673ffffffffffffffffffffffffffffffffffffffff16815260200190815260200160002060009054906101000a900460ff169050919050565b60013390806001815401808255809150509060018203906000526020600020016000909192909190916101000a81548173ffffffffffffffffffffffffffffffffffffffff021916908373ffffffffffffffffffffffffffffffffffffffff1602179055505060016000803373ffffffffffffffffffffffffffffffffffffffff1673ffffffffffffffffffffffffffffffffffffffff16815260200190815260200160002060006101000a81548160ff021916908315150217905550565b6000600180549050905090565b60008090505b600180549050811161049a576000806000600184815481106103d157fe5b9060005260206000200160009054906101000a900473ffffffffffffffffffffffffffffffffffffffff1673ffffffffffffffffffffffffffffffffffffffff1673ffffffffffffffffffffffffffffffffffffffff16815260200190815260200160002060006101000a81548160ff021916908315150217905550600180548061045857fe5b6001900381819060005260206000200160006101000a81549073ffffffffffffffffffffffffffffffffffffffff0219169055905580806001019150506103b3565b5056fea265627a7a7231582014b1c68a14aaeec6c6835e27b19ffe6793d1bc0855e794b297a2792a8dc6dc4964736f6c63430005100032",
  "source": "pragma solidity ^0.5.16;\r\n\r\ncontract attendanceTracker {\r\n\r\n    mapping(address => bool) attendees;\r\n     address[] public attendeesAddress;\r\n    \r\n    function addAttendee() external {\r\n        attendeesAddress.push(msg.sender);\r\n        attendees[msg.sender] = true;\r\n    }\r\n\r\n    function checkAttendee(address  _address) view external returns(bool) {\r\n        return attendees[_address];\r\n    }\r\n    \r\n    function getAttendeeCount() view external returns(uint) {\r\n        return attendeesAddress.length;\r\n    }\r\n\r\n    function getStringArray() view external returns (address[] memory) {\r\n        return attendeesAddress;\r\n    }\r\n    \r\n    function resetAttendance() public {\r\n        \r\n        for (uint i=0; i<= attendeesAddress.length ; i++){\r\n            attendees[attendeesAddress[i]] = false;\r\n            attendeesAddress.pop();\r\n        }\r\n        \r\n    }\r\n\r\n}\r\n\r\n",
  "sourcePath": "C:/Users/Bc/Documents/GitHub/buidl/next-frontend-bns/contracts/attendanceTracker.sol",
  "compiler": {
    "name": "solc",
    "version": "0.5.16+commit.9c3226ce.Emscripten.clang"
  },
  "schemaVersion": "3.0.21",
  "updatedAt": "2020-06-23T15:11:55.548Z",
  "networkType": "ethereum",
  "devdoc": {
    "methods": {}
  },
  "userdoc": {
    "methods": {}
  }
}