{
  "contractName": "callSimpleStorage",
  "abi": [
    {
      "inputs": [
        {
          "internalType": "address",
          "name": "_address",
          "type": "address"
        }
      ],
      "payable": false,
      "stateMutability": "nonpayable",
      "type": "constructor"
    },
    {
      "constant": true,
      "inputs": [],
      "name": "simpleStorage_address",
      "outputs": [
        {
          "internalType": "address",
          "name": "",
          "type": "address"
        }
      ],
      "payable": false,
      "stateMutability": "view",
      "type": "function"
    },
    {
      "constant": false,
      "inputs": [
        {
          "internalType": "uint256",
          "name": "_value",
          "type": "uint256"
        }
      ],
      "name": "setStorage",
      "outputs": [],
      "payable": false,
      "stateMutability": "nonpayable",
      "type": "function"
    },
    {
      "constant": true,
      "inputs": [],
      "name": "getStorage",
      "outputs": [
        {
          "internalType": "uint256",
          "name": "",
          "type": "uint256"
        }
      ],
      "payable": false,
      "stateMutability": "view",
      "type": "function"
    }
  ],
  "bytecode": "0x608060405234801561001057600080fd5b5060405161030d38038061030d8339818101604052602081101561003357600080fd5b8101908080519060200190929190505050806000806101000a81548173ffffffffffffffffffffffffffffffffffffffff021916908373ffffffffffffffffffffffffffffffffffffffff16021790555050610279806100946000396000f3fe608060405234801561001057600080fd5b50600436106100415760003560e01c80633408f73a14610046578063d699c75014610064578063e61d7a2b14610092575b600080fd5b61004e6100dc565b6040518082815260200191505060405180910390f35b6100906004803603602081101561007a57600080fd5b810190808035906020019092919050505061018a565b005b61009a61021f565b604051808273ffffffffffffffffffffffffffffffffffffffff1673ffffffffffffffffffffffffffffffffffffffff16815260200191505060405180910390f35b6000806000809054906101000a900473ffffffffffffffffffffffffffffffffffffffff1690508073ffffffffffffffffffffffffffffffffffffffff16636d4ce63c6040518163ffffffff1660e01b815260040160206040518083038186803b15801561014957600080fd5b505afa15801561015d573d6000803e3d6000fd5b505050506040513d602081101561017357600080fd5b810190808051906020019092919050505091505090565b60008060009054906101000a900473ffffffffffffffffffffffffffffffffffffffff1690508073ffffffffffffffffffffffffffffffffffffffff166360fe47b1836040518263ffffffff1660e01b815260040180828152602001915050600060405180830381600087803b15801561020357600080fd5b505af1158015610217573d6000803e3d6000fd5b505050505050565b6000809054906101000a900473ffffffffffffffffffffffffffffffffffffffff168156fea265627a7a723158203d6bef5858814c79dc3b13bfb442e498f7ae3f1d6d0977cba951871937ebfbe864736f6c63430005100032",
  "source": "pragma solidity ^0.5.16;\r\n\r\ninterface simpleInterface{\r\n\r\n  function set(uint) external;\r\n  function get() external view returns (uint);\r\n\r\n}\r\n\r\ncontract callSimpleStorage {\r\n\r\n    address public simpleStorage_address;\r\n\r\n    constructor(address _address) public {\r\n        simpleStorage_address = _address;\r\n    }\r\n    function setStorage(uint _value) public {\r\n         simpleInterface contractInstance = simpleInterface(simpleStorage_address);\r\n         contractInstance.set(_value);\r\n    }\r\n    function getStorage() public view returns (uint){\r\n        simpleInterface contractInstance = simpleInterface(simpleStorage_address);\r\n        return contractInstance.get();\r\n    }\r\n\r\n}",
  "sourcePath": "C:/Users/Bc/Documents/GitHub/buidl/next-frontend-bns/contracts/callSimpleStorage.sol",
  "compiler": {
    "name": "solc",
    "version": "0.5.16+commit.9c3226ce.Emscripten.clang"
  },
  "schemaVersion": "3.0.21",
  "updatedAt": "2020-07-09T10:21:59.395Z",
  "networkType": "ethereum",
  "devdoc": {
    "methods": {}
  },
  "userdoc": {
    "methods": {}
  }
}